:020000040800F2
:10000000D80A0020890100083D100008CD0D000825
:100010003B1000088F020008A51000080000000037
:100020000000000000000000000000004110000877
:1000300091020008000000003F1000084310000873
:10004000A3010008A3010008A3010008A301000800
:10005000A3010008A3010008A3010008A3010008F0
:10006000A3010008A3010008A3010008A3010008E0
:10007000A3010008A3010008A3010008A3010008D0
:10008000A3010008A3010008A3010008A3010008C0
:10009000A3010008A3010008A3010008A3010008B0
:1000A000A3010008A3010008A3010008A3010008A0
:1000B000A3010008A3010008A3010008A301000890
:1000C000A3010008A3010008A3010008A301000880
:1000D000A3010008A3010008A3010008A301000870
:1000E000A3010008A3010008A301000800F002F822
:1000F00000F03AF80AA090E8000C82448344AAF188
:100100000107DA4501D100F02FF8AFF2090EBAE885
:100110000F0013F0010F18BFFB1A43F0010318473B
:10012000C41A0000E41A0000103A24BF78C878C14D
:10013000FAD8520724BF30C830C144BF04680C60ED
:10014000704700000023002400250026103A28BF35
:1001500078C1FBD8520728BF30C148BF0B60704739
:100160001FB51FBD10B510BD00F058F81146FFF7C0
:10017000F7FF00F0A9FF00F076F803B4FFF7F2FFF5
:1001800003BC00F07DF8000009488047094800479B
:10019000FEE7FEE7FEE7FEE7FEE7FEE7FEE7FEE737
:1001A000FEE7FEE704480549054A064B7047000094
:1001B000A3100008ED000008D8040020D80A002091
:1001C000D8060020D80600204FF0000200B51346E4
:1001D00094469646203922BFA0E80C50A0E80C5067
:1001E000B1F12001BFF4F7AF090728BFA0E80C5018
:1001F00048BF0CC05DF804EB890028BF40F8042B11
:1002000008BF704748BF20F8022B11F0804F18BF7D
:1002100000F8012B7047704770477047754600F033
:100220002BF8AE4605006946534620F00700854688
:1002300018B020B5FFF7B6FFBDE820404FF000062C
:100240004FF000074FF000084FF0000B21F00701BE
:10025000AC46ACE8C009ACE8C009ACE8C009ACE801
:10026000C0098D46704710B50446AFF300802046A4
:10027000BDE81040FFF781BF0048704774040020BC
:1002800001491820ABBEFEE7260002007047FEE7DA
:100290007047000070B5044600F0FEF80546601C8B
:1002A00002D004480078044400F0F6F8401BA04255
:1002B000FAD370BD100000202DE9F84FDFF8B89197
:1002C000002409F1040A0AF1040B23460F270BF15D
:1002D000040EC9E00125A5402A40AA427DD1674EFF
:1002E000D1F804C0ACEB0608B44532D014DCBCF144
:1002F000030F3AD009DCBCF1000F2AD0BCF1010F8A
:100300001CD0BCF1020F31D11DE0BCF1110F17D090
:10031000BCF1120F2AD119E0B8F5881F19D006DCFC
:10032000B8F5803F15D0B8F5801F1FD111E0B8F5A2
:10033000001F0ED0B8F5041F18D10AE0CB6815E0F5
:10034000CB681B1D12E0CB6808330FE0CB680C3381
:100350000CE08B682BB1012B4FF0080303D04561F3
:1003600004E0042302E0056100E00023FF2A01D835
:10037000064601E000F104064FEA840501D9A5F123
:100380002005D6F8008007FA05FC28EA0C0803FAD5
:1003900005F548EA0508C6F800804D68ED0062D50D
:1003A000374DAE6946F00106AE61AD6924F0030633
:1003B00005F001050095334D06EB050CDCF80850FF
:1003C000A607360F07FA06F825EA0805DFF8B88011
:1003D000404503D14FF0000817E044E0DFF8AC805F
:1003E000404502D14FF001080FE0DFF8A4804045FE
:1003F00002D14FF0020808E0DFF89880404502D1B2
:100400004FF0030801E04FF0040808FA06F848EA44
:100410000508CCF808804D68D9F80060ED034D461A
:1004200001D5164300E096432E604D68DAF800606F
:10043000AD03554601D5164300E096432E604D6846
:10044000DBF80060ED025D4601D5164300E09643FF
:100450002E604D68DEF80060AD02754601D516438A
:1004600000E096432E60641C0D682A46E5407FF448
:1004700031AFBDE8F88F000000040140000011100A
:10048000001002400000014000080140000C014043
:1004900000100140001401400148806870470000CE
:1004A0001000002070B5040025D094F83D00002510
:1004B00020B984F83C50204600F050F9242084F8FC
:1004C0003D002068016821F0010101602068016899
:1004D00041F4004101602068016821F4004101609D
:1004E00000F08AFA4D4A6168914201D84C4900E017
:1004F0004C49884201D2012070BD4B492368B0FBB2
:10050000F1F15E6826F03F060E435E606368934239
:1005100006D94FF4967359434FF47A73B1FBF3F154
:100520002368491C1E6A26F03F0631431962616840
:10053000914210D84900401EB0FBF1F2521CC2F3A8
:100540000B02042A01D2042022E0B0FBF1F0401C8F
:10055000C0F30B001CE0A268F2B301EBC10303EB94
:100560000116431EB3FBF6F35B1C43F480431B05EB
:1005700049D092B301EBC10202EB0111401EB0FB66
:10058000F1F0401CC0F30B0040F4804040F4004008
:100590002168CA694CF6FF739A431043C861D4E9D5
:1005A000071001432068026822F0C0021143016075
:1005B000D4E9030101432068826848F2FF339A437B
:1005C00011438160D4E9050108432168CA6822F01B
:1005D000FF021043C86001E00EE016E020680168E9
:1005E00041F0010101602564202084F83D0025636D
:1005F00084F83E50002070BD01EB4106431EB3FB62
:10060000F6F35B1CB3E70120C2E701EB4101401E9A
:10061000B0FBF1F0401CC0F30B00B7E7A08601006F
:1006200080841E0000093D0040420F002DE9FF4F6D
:1006300083B09A46DDE9119793460446DDF8408081
:10064000FFF72AFF054694F83D0020287FD11923A3
:10065000012240492046009500F04AFC002876D14E
:1006600094F83C00012872D0012084F83C002068F6
:100670000168C90703D1016841F0010101602068E8
:10068000016821F400610160212084F83D004020D0
:1006900084F83E0000262664C4F82480A4F82A903A
:1006A000608D20852C48E062CDE9007553465A469E
:1006B0002046049900F0A2FB70B930E02A46394682
:1006C000204600F094FC58B1206C042804D1206826
:1006D000016841F400710160012007B0BDE8F08FAE
:1006E000606A216800780861606A401C6062218D40
:1006F000491E89B22185628D521E62852268536926
:10070000DB435B070BD469B100781061606A401C61
:100710006062208D401E2085608D401E6085208D8A
:100720000028CBD12A463946204600F0BBFB0028E2
:10073000CAD154F83D0B016841F4007101602020DA
:1007400004F81E09E67766770020C6E7FFE7022077
:10075000C3E70000020010000000FFFF10B586B0E4
:100760000021009101910291039100680F49884294
:100770001AD10F4CA06940F00800A061A069694639
:1007800000F008000490C020009012200190032087
:1007900003900848FFF790FDE06940F40010E06125
:1007A000E06900F40010049006B010BD0054004051
:1007B00000100240000C0140024881680278114498
:1007C0008160704710000020074810B5016841F0B3
:1007D00010010160032000F067F80F2000F006F818
:1007E00000F024F8002010BD0020024070B50D4D2F
:1007F00004464FF47A712878B1FBF0F00A49096891
:10080000B1FBF0F000F0CEFA48B9102C07D200226C
:100810002146501E00F028F800206C6070BD0120B9
:1008200070BD0000100000201C0000200C4808B51E
:10083000816941F001018161816901F0010100914B
:10084000C16941F08051C161C06900F080500090E1
:100850000448416821F0E06141F00071416008BD49
:100860000010024000000140F0B40E4B1B680C4623
:10087000C3F30223C3F10705042D00D90425191D74
:10088000072901D2002300E0DB1E012606FA05F14C
:10089000491E214099409E40761E16403143F0BCCF
:1008A00000F001BC0CED00E0064900F0070208680A
:1008B0004FF6FF03184040EA0220034A1043086045
:1008C000704700000CED00E00000FA052DE9F0474C
:1008D0000F46050061D0434E306800F00700B84273
:1008E00009D2306820F0070038433060306800F0EB
:1008F0000700B84251D128683B4C810712D5400708
:1009000003D5606840F4E06060602878000703D594
:10091000606840F4605060606068A96820F0F00092
:10092000084360602878C00728D06868012810D084
:100930002168022810D0890700292EDA616821F089
:10094000030101436160FFF7A7FD804641F288394A
:100950000DE021688903EFE78901EDE7FFF79CFDD2
:10096000A0EB0801494502D90320BDE8F087606883
:10097000696800F00C00B0EB810FEFD1306800F037
:100980000700B8420BD9306820F0070038433060C8
:10099000306800F00700B84201D00120E5E7287870
:1009A000400705D56068E96820F4E06008436060AE
:1009B0002878000706D56068296920F4605040EA6D
:1009C000C100606000F028F86168084AC1F30311B3
:1009D000515CC8400649086006480068FFF706FFFA
:1009E0000020C2E70020024000100240CC1B00089B
:1009F0001C000020140000200448054900684968D4
:100A0000044AC1F30221515CC84070471C00002019
:100A100000100240DC1B000812A185B00FC98DE850
:100A20000F0014A0144A006804905168134801F0A4
:100A30000C03042B10D0082B0ED1C1F38343C90340
:100A40001DF803000AD5516804AAC1F34041515C66
:100A50000A4A5043B0FBF1F005B0704708494843DB
:100A6000FAE7000002030405060708090A0B0C0D4B
:100A70000E0F1010010200000010024000127A0058
:100A800000093D002DE9F84F040070D02078C04DDA
:100A9000C00749D06868C0F38100012807D06868A2
:100AA000C0F38100022809D16868C00306D5286810
:100AB000800339D560680028E7D035E06068B0F57C
:100AC000803F0BD010B1B0F5A02F11D0286820F4D2
:100AD00080302860286820F4802002E0286840F4F4
:100AE00080302860606890B1FFF7D6FC06460AE0C7
:100AF000286840F480202860F0E700BFFFF7CCFCB6
:100B0000801B642873D828688003F7D50CE0FFF7B2
:100B1000C3FC064605E000BFFFF7BEFC801B64284F
:100B2000F0D828688003F7D420789A4E80074FF0D9
:100B300001094FF0000839D5686810F00C0F07D094
:100B40006868C0F38100022809D16868C00306D430
:100B50002868800714D52069012808D110E0206991
:100B6000B0B1C6F80090FFF797FC074605E00AE130
:100B7000FFF792FCC01B0228C4D828688007F7D56D
:100B80002868616920F0F80040EAC10028600DE0A3
:100B9000C6F80080FFF780FC074604E0FFF77CFC06
:100BA000C01B022823D828688007F7D420780007C4
:100BB0002CD57948A169D9B1C0F80090FFF76CFC39
:100BC000074604E0FFF768FCC01B02280FD8686ADC
:100BD0008007F7D571484FF4FA510068B0FBF1F087
:100BE000009000BF0098411E0091FAD20EE080E014
:100BF000C0F80080FFF750FC074604E0FFF74CFC0C
:100C0000C01B022875D8686A8007F7D4207840078F
:100C100060D5E8690027C00008D4E86940F080503A
:100C2000E861E869012700F0805000905C480168A5
:100C3000C90513D40168834641F480710160FFF750
:100C40002BFC824606E000BFFFF726FCA0EB0A0063
:100C500064284ED8DBF80000C005F5D5E06801280F
:100C60000AD008B1052813D0286A20F001002862B4
:100C7000286A20F0040002E0286A40F0010028629F
:100C8000E06841F2883B98B1FFF706FC82460BE032
:100C9000286A40F004002862EEE700BFFFF7FCFB83
:100CA000A0EB0A0159455AD8286A8007F6D50CE00E
:100CB000FFF7F2FB824605E0FFF7EEFBA0EB0A012F
:100CC00059454CD8286A8007F6D41FB1E86920F04E
:100CD0008050E861E06988B36968C1F38101022945
:100CE00044D00228C6F8608004D0FFF7D5FB044644
:100CF00038E034E0FFF7D0FB074604E0FFF7CCFB19
:100D0000C01B02282BD828688001F7D4206AB0F5D0
:100D1000803F05D16868A16820F40030084368600E
:100D2000D4E908010843696821F474110843686034
:100D3000C6F86090FFF7B0FB044606E025E000BF70
:100D4000FFF7AAFB001B022809D828688001F7D505
:100D50001BE000BFFFF7A0FB001B022802D9032005
:100D6000BDE8F88F28688001F4D40EE00128F7D0A0
:100D70006868226A00F48031914204D1616A00F40B
:100D80007010884201D00120EAE70020E8E7000067
:100D90000010024000004242800442421C00002039
:100DA0000070004010B5401EB0F1807F01D30120DB
:100DB00010BD4FF0E02460610F21601700F073F95F
:100DC0000020A06107202061002010BDFEE701681F
:100DD0004A69D24352050FD46FF480624A61002100
:100DE00040F8301F202242738173026942F00402EE
:100DF0000261017301207047002070472DE9F8431C
:100E0000044600680D46DDE90897016898461646D5
:100E100041F4807101604B4600224FF001112046E1
:100E2000009700F065F848B120680068C00502D559
:100E30004FF4007020640320BDE8F883216805F0BA
:100E4000FE0008613B464A461549204600F084F8FA
:100E500088B920684169806900903A464946204631
:100E600000F0C5F848B1206C042804D1206801685E
:100E700041F4007101600120DEE7F5B2B8F1010F25
:100E800009D02168300A08613A464946204600F0F8
:100E9000AEF80028E7D1206805610020CCE700000B
:100EA0000200010070B516460D4604460DE02046CE
:100EB000FFF78DFF08B1012070BD681C05D0FFF75A
:100EC000EBFA801BA84207D835B120684069C043BF
:100ED0004007ECD4002070BD002044F8300F2021E2
:100EE0006173A073216941F0200121612073E2E761
:100EF0002DE9F0471E4690460D460446C1F30747CC
:100F0000DDF8209008E0701C06D0FFF7C5FAA0EBD2
:100F10000900B0420FD876B12068012F18D080693F
:100F200025EA00000004000C14D000214145EAD05D
:100F30000020BDE8F087002044F8300F20216173C5
:100F4000A073216941F02001216120730120F0E7A5
:100F50004069E5E70121E9E72DE9F0479A46914626
:100F60000E46044600254FF02008C1F3074725E050
:100F700020684069C043400514D42068016841F4EA
:100F80000071016021686FF480604861256384F816
:100F90003D8084F83E50206C40F00400206484F8CA
:100FA0003C501FE0B9F1FF3F08D0FFF775FAA0EB06
:100FB0000A0149450CD8B9F1000F09D02068012F6A
:100FC00013D0806926EA00000004000C0BD0CFE7A4
:100FD00044F8305F84F80D80A573206940F020004C
:100FE000206125730120BDE8F0874069EAE770B50C
:100FF00016460D4604460DE02046FFF7E8FE08B110
:10100000012070BD681C05D0FFF746FA801BA8427E
:1010100007D835B120684069C0430006ECD40020F1
:1010200070BD002044F8300F20216173A073216946
:1010300041F0200121612073E2E7FEE7FEE77047FF
:101040007047FFF7B9BB30B58FB028216846FFF76E
:10105000BBF814210AA8FFF7B7F801210804CDE96D
:1010600000100024029402250491CDE907500001EC
:1010700009906846FFF706FD08B172B6FEE70F203B
:10108000CDE90A054FF48060CDE90C4001210AA8A2
:101090000E94FFF71BFC002801D072B6FEE70FB0DC
:1010A00030BD7047FEE70907090E002804DB00F198
:1010B000E02080F80014704700F00F0000F1E020FD
:1010C00080F8141D7047000008B5FFF77DFBFFF79F
:1010D000BAFF1F48816941F020018161816901F0F7
:1010E00020010091816941F004018161816901F071
:1010F00004010091816941F008018161806915490D
:1011000000F00800009014484FF480420160134939
:10111000416000218160C0E9031241618161C161C8
:101120000162FFF7BFF908B172B6FEE70A4800F0A6
:1011300051F80021084600F0F1F809480123D0E9F0
:10114000001208A000F076F9034800F0EDF8FEE781
:10115000001002400054004020000020A086010042
:101160000000002048656C6C6F20576F726C642122
:101170000000000070B5802813D2402911D20B4B1B
:10118000012401F007051E79AC40094BC90800EBAA
:10119000C1100EB132B101E0012A03D0195CA143A4
:1011A000195470BD195C2143FAE7000008000020C3
:1011B0007400002010B5064A00214FF4806328B166
:1011C000FF245454491C9942F9D310BD0024F8E778
:1011D0007400002070B505466420FFF75BF8AE216F
:1011E000284600F019F904462021284600F014F999
:1011F00004441021284600F00FF90444B021284689
:1012000000F00AF90444C821284600F005F9044416
:101210000021284600F000F904441021284600F07F
:10122000FBF804444021284600F0F6F804448121EC
:10123000284600F0F1F80444FF21284600F0ECF8BD
:101240000444A121284600F0E7F80444A6212846DA
:1012500000F0E2F80444A821284600F0DDF8044438
:101260003F21284600F0D8F80444A421284600F085
:10127000D3F80444D321284600F0CEF804440021DA
:10128000284600F0C9F80444D521284600F0C4F8E7
:101290000444F021284600F0BFF80444D921284630
:1012A00000F0BAF804442221284600F0B5F80444BE
:1012B000DA21284600F0B0F804441221284600F054
:1012C000ABF80444DB21284600F0A6F804442021B2
:1012D000284600F0A1F804448D21284600F09CF82F
:1012E00004441421284600F097F80444AF2128460E
:1012F00000F092F8E04201D0012070BD0020FFF71D
:1013000059FF284600F010F8034800210180418071
:1013100001214171002070BD08000020014A1080A9
:1013200051807047080000202DE9FE430024642509
:10133000114F8046802600BF04F1B000C1B2404684
:1013400000F06AF80021404600F066F8102140469F
:1013500000F062F807EBC410CDE90006012340223B
:10136000782102954046FFF761F9641CE4B2082C2D
:10137000E2D3BDE8FE830000740000202DE9FF4F9A
:10138000834624489246CEB202883244802A06D24E
:1013900081464088C1F307273844402803D3002002
:1013A00004B0BDE8F08F002528E000BFABF12000BD
:1013B00000FB075000243AF810801CE008FA04F003
:1013C000000409D599F8021099F800002944204436
:1013D000C9B2C0B2039A0BE00398C0B15FF000023B
:1013E00099F8021099F8000029442044C9B2C0B20B
:1013F000FFF7C0FE641CA642E0D86D1CAF42D5D8F2
:10140000B9F8001058463144A9F80010C8E7012285
:10141000E6E700000800002003B583B00A2301229C
:1014200004A98DE80E00134600227821FFF7FEF88C
:1014300005B000BDF0B51D460E46174604460AE04D
:101440002B463A463146FFF799FF2178884201D072
:10145000C8B2F0BD641C20780028F1D1C0B2F0BD44
:10146000000000000000000000000000000000007C
:10147000000000000010001000100010001000100C
:1014800000000010000000000028002800280000D4
:101490000000000000000000000000000024002404
:1014A000007C00240048007C004800480000000048
:1014B0000038005400500038001400540054003824
:1014C0000010000000200054005800300028005494
:1014D0000014000800000000001000280028001080
:1014E00000340048004800340000000000100010E4
:1014F00000100000000000000000000000000000DC
:101500000008001000200020002000200020002003
:101510000010000800200010000800080008000863
:1015200000080008001000200010003800100028FB
:1015300000000000000000000000000000000000AB
:1015400000100010007C00100010000000000000DF
:10155000000000000000000000000000000000107B
:101560000010001000000000000000000000003823
:10157000000000000000000000000000000000006B
:10158000000000000000001000000000000800083B
:1015900000100010001000100020002000000000CB
:1015A0000038004400440054004400440044003823
:1015B000000000000010003000500010001000106B
:1015C0000010001000000000003800440044000437
:1015D000000800100020007C0000000000380044DB
:1015E000000400180004000400440038000000005B
:1015F00000080018002800280048007C00080008A7
:1016000000000000007C004000400078000400045E
:10161000004400380000000000380044004000781A
:10162000004400440044003800000000007C000436
:101630000008001000100020002000200000000022
:10164000003800440044003800440044004400389E
:10165000000000000038004400440044003C000446
:1016600000440038000000000000000000100000EE
:10167000000000000000001000000000000000005A
:10168000000000100000000000000010001000101A
:1016900000000000000C003000400030000C000092
:1016A00000000000000000000000007C0000007C42
:1016B00000000000000000000000000000600018B2
:1016C0000004001800600000000000000038004422
:1016D00000040008001000100000001000000000CE
:1016E00000380044004C0054005C004000400038CA
:1016F0000000000000100028002800280028007CBE
:1017000000440044000000000078004400440078D9
:101710000044004400440078000000000038004409
:10172000004000400040004000440038000000003D
:101730000070004800440044004400440048007029
:1017400000000000007C00400040007C00400040A1
:101750000040007C00000000007C00400040007859
:1017600000400040004000400000000000380044FD
:1017700000400040005C00440044003800000000CD
:10178000004400440044007C004400440044004401
:1017900000000000003800100010001000100010C1
:1017A00000100038000000000004000400040004E1
:1017B0000004000400440038000000000044004819
:1017C0000050006000500048004800440000000045
:1017D0000040004000400040004000400040007CCD
:1017E000000000000044006C006C00540044004401
:1017F0000044004400000000004400640064005401
:101800000054004C004C004400000000003800442C
:10181000004400440044004400440038000000003C
:10182000007800440044004400780040004000403C
:10183000000000000038004400440044004400441C
:1018400000540038000400000078004400440044C4
:1018500000780048004800440000000000380044C0
:101860000040003000080004004400380000000080
:10187000007C00100010001000100010001000107C
:1018800000000000004400440044004400440044C0
:1018900000440038000000000044004400440028D8
:1018A0000028002800100010000000000044004440
:1018B000005400540054006C002800280000000070
:1018C00000440028002800100010002800280044D0
:1018D0000000000000440044002800280010001010
:1018E0000010001000000000007C00040008001040
:1018F000001000200040007C0000000000180010D4
:10190000001000100010001000100010001000184F
:101910000020002000100010001000100008000837
:101920000000000000300010001000100010001037
:1019300000100010001000300010002800280044A3
:101940000000000000000000000000000000000097
:10195000000000000000000000000000000000FE89
:101960000020001000000000000000000000000047
:10197000000000000000000000380044003C00446B
:10198000004C00340000000000400040005800649B
:101990000044004400640058000000000000000003
:1019A00000380044004000400044003800000000BF
:1019B000000400040034004C00440044004C003497
:1019C000000000000000000000380044007C0040DF
:1019D0000044003800000000000C0010007C0010E3
:1019E00000100010001000100000000000000000B7
:1019F0000034004C00440044004C003400040078E3
:101A0000004000400058006400440044004400448A
:101A10000000000000100000007000100010001016
:101A20000010001000000000001000000070001006
:101A30000010001000100010001000E000400040F6
:101A400000480050006000500048004400000000C2
:101A500000700010001000100010001000100010A6
:101A60000000000000000000007800540054005402
:101A70000054005400000000000000000058006402
:101A80000044004400440044000000000000000046
:101A900000380044004400440044003800000000C6
:101AA0000000000000580064004400440064005836
:101AB00000400040000000000034004C004400449E
:101AC000004C0034000400040000000000580064D2
:101AD0000040004000400040000000000000000006
:101AE00000380044003000080044003800000000C6
:101AF0000020002000780020002000200020001896
:101B000000000000000000000044004400440044C5
:101B1000004C0034000000000000000000440044BD
:101B2000002800280028001000000000000000002D
:101B3000005400540054006C0028002800000000ED
:101B4000000000000044002800100010002800449D
:101B500000000000000000000044004400280028AD
:101B6000001000100010006000000000007C000861
:101B7000001000200040007C000000000018001051
:101B800000100010002000200010001000100018AD
:101B900000100010001000100010001000100010C5
:101BA00000100010003000100010001000080008A5
:101BB0000010001000100030000000000000007451
:101BC000004C0000000000000000000000000000C9
:101BD00000000000010203040607080900000000DD
:101BE00001020304041C0008000000202000000083
:101BF00028010008241C000820000020B80A00006A
:101C000044010008070A00006014000800000000FA
:101C100000000000010000001000000000000000B3
:041C20000024F400A8
:04000005080000ED02
:00000001FF
